{
  "contractName": "Exchange",
  "abi": [
    {
      "constant": true,
      "inputs": [],
      "name": "owner",
      "outputs": [
        {
          "name": "",
          "type": "address"
        }
      ],
      "payable": false,
      "stateMutability": "view",
      "type": "function"
    },
    {
      "constant": false,
      "inputs": [
        {
          "name": "newOwner",
          "type": "address"
        }
      ],
      "name": "transferOwnership",
      "outputs": [],
      "payable": false,
      "stateMutability": "nonpayable",
      "type": "function"
    },
    {
      "anonymous": false,
      "inputs": [
        {
          "indexed": true,
          "name": "previousOwner",
          "type": "address"
        },
        {
          "indexed": true,
          "name": "newOwner",
          "type": "address"
        }
      ],
      "name": "OwnershipTransferred",
      "type": "event"
    },
    {
      "constant": false,
      "inputs": [],
      "name": "depositEther",
      "outputs": [],
      "payable": true,
      "stateMutability": "payable",
      "type": "function"
    },
    {
      "constant": false,
      "inputs": [
        {
          "name": "amountInWei",
          "type": "uint256"
        }
      ],
      "name": "withdrawEther",
      "outputs": [],
      "payable": false,
      "stateMutability": "nonpayable",
      "type": "function"
    },
    {
      "constant": false,
      "inputs": [],
      "name": "getEthBalanceInWei",
      "outputs": [
        {
          "name": "",
          "type": "uint256"
        }
      ],
      "payable": false,
      "stateMutability": "nonpayable",
      "type": "function"
    },
    {
      "constant": false,
      "inputs": [
        {
          "name": "symbolName",
          "type": "string"
        },
        {
          "name": "erc20TokenAddress",
          "type": "address"
        }
      ],
      "name": "addToken",
      "outputs": [],
      "payable": false,
      "stateMutability": "nonpayable",
      "type": "function"
    },
    {
      "constant": true,
      "inputs": [
        {
          "name": "symbolName",
          "type": "string"
        }
      ],
      "name": "hasToken",
      "outputs": [
        {
          "name": "",
          "type": "bool"
        }
      ],
      "payable": false,
      "stateMutability": "view",
      "type": "function"
    },
    {
      "constant": true,
      "inputs": [
        {
          "name": "symbolName",
          "type": "string"
        }
      ],
      "name": "getSymbolIndex",
      "outputs": [
        {
          "name": "",
          "type": "uint8"
        }
      ],
      "payable": false,
      "stateMutability": "view",
      "type": "function"
    },
    {
      "constant": false,
      "inputs": [
        {
          "name": "symbolName",
          "type": "string"
        },
        {
          "name": "amount",
          "type": "uint256"
        }
      ],
      "name": "depositToken",
      "outputs": [],
      "payable": false,
      "stateMutability": "nonpayable",
      "type": "function"
    },
    {
      "constant": false,
      "inputs": [
        {
          "name": "symbolName",
          "type": "string"
        },
        {
          "name": "amount",
          "type": "uint256"
        }
      ],
      "name": "withdrawToken",
      "outputs": [],
      "payable": false,
      "stateMutability": "nonpayable",
      "type": "function"
    },
    {
      "constant": false,
      "inputs": [
        {
          "name": "symbolName",
          "type": "string"
        }
      ],
      "name": "getBalance",
      "outputs": [
        {
          "name": "",
          "type": "uint256"
        }
      ],
      "payable": false,
      "stateMutability": "nonpayable",
      "type": "function"
    },
    {
      "constant": false,
      "inputs": [
        {
          "name": "symbolName",
          "type": "string"
        }
      ],
      "name": "getBuyOrderBook",
      "outputs": [
        {
          "name": "",
          "type": "uint256[]"
        },
        {
          "name": "",
          "type": "uint256[]"
        }
      ],
      "payable": false,
      "stateMutability": "nonpayable",
      "type": "function"
    },
    {
      "constant": false,
      "inputs": [
        {
          "name": "symbolName",
          "type": "string"
        }
      ],
      "name": "getSellOrderBook",
      "outputs": [
        {
          "name": "",
          "type": "uint256[]"
        },
        {
          "name": "",
          "type": "uint256[]"
        }
      ],
      "payable": false,
      "stateMutability": "nonpayable",
      "type": "function"
    },
    {
      "constant": false,
      "inputs": [
        {
          "name": "symbolName",
          "type": "string"
        },
        {
          "name": "priceInWei",
          "type": "uint256"
        },
        {
          "name": "amount",
          "type": "uint256"
        }
      ],
      "name": "buyToken",
      "outputs": [],
      "payable": false,
      "stateMutability": "nonpayable",
      "type": "function"
    },
    {
      "constant": false,
      "inputs": [
        {
          "name": "symbolName",
          "type": "string"
        },
        {
          "name": "priceInWei",
          "type": "uint256"
        },
        {
          "name": "amount",
          "type": "uint256"
        }
      ],
      "name": "sellToken",
      "outputs": [],
      "payable": false,
      "stateMutability": "nonpayable",
      "type": "function"
    },
    {
      "constant": false,
      "inputs": [
        {
          "name": "symbolName",
          "type": "string"
        },
        {
          "name": "priceInWei",
          "type": "uint256"
        },
        {
          "name": "amount",
          "type": "uint256"
        },
        {
          "name": "offer_key",
          "type": "uint256"
        }
      ],
      "name": "cancelOrder",
      "outputs": [],
      "payable": false,
      "stateMutability": "nonpayable",
      "type": "function"
    }
  ],
  "bytecode": "0x6080604052336000806101000a81548173ffffffffffffffffffffffffffffffffffffffff021916908373ffffffffffffffffffffffffffffffffffffffff1602179055506113bc806100536000396000f3fe6080604052600436106100e6576000357c0100000000000000000000000000000000000000000000000000000000900463ffffffff16806303bc4a27146100eb5780631a8eb72b1461025057806333ad57e41461027b5780633a51d2461461034d5780633bed33ce146104295780635ab8ea331461046457806367fee8b414610540578063728ff02914610622578063851030fe146107875780638900c8e1146108635780638da5cb5b146109495780638ea00818146109a057806398ea5fca14610a80578063b0b22c2c14610a8a578063c97a413a14610b72578063f2fde38b14610c44575b600080fd5b3480156100f757600080fd5b506101b16004803603602081101561010e57600080fd5b810190808035906020019064010000000081111561012b57600080fd5b82018360208201111561013d57600080fd5b8035906020019184600183028401116401000000008311171561015f57600080fd5b91908080601f016020809104026020016040519081016040528093929190818152602001838380828437600081840152601f19601f820116905080830192505050505050509192919290505050610c95565b604051808060200180602001838103835285818151815260200191508051906020019060200280838360005b838110156101f85780820151818401526020810190506101dd565b50505050905001838103825284818151815260200191508051906020019060200280838360005b8381101561023a57808201518184015260208101905061021f565b5050505090500194505050505060405180910390f35b34801561025c57600080fd5b50610265610c9d565b6040518082815260200191505060405180910390f35b34801561028757600080fd5b5061034b6004803603604081101561029e57600080fd5b81019080803590602001906401000000008111156102bb57600080fd5b8201836020820111156102cd57600080fd5b803590602001918460018302840111640100000000831117156102ef57600080fd5b91908080601f016020809104026020016040519081016040528093929190818152602001838380828437600081840152601f19601f82011690508083019250505050505050919291929080359060200190929190505050610ca2565b005b34801561035957600080fd5b506104136004803603602081101561037057600080fd5b810190808035906020019064010000000081111561038d57600080fd5b82018360208201111561039f57600080fd5b803590602001918460018302840111640100000000831117156103c157600080fd5b91908080601f016020809104026020016040519081016040528093929190818152602001838380828437600081840152601f19601f820116905080830192505050505050509192919290505050610ca6565b6040518082815260200191505060405180910390f35b34801561043557600080fd5b506104626004803603602081101561044c57600080fd5b8101908080359060200190929190505050610cad565b005b34801561047057600080fd5b5061053e6004803603606081101561048757600080fd5b81019080803590602001906401000000008111156104a457600080fd5b8201836020820111156104b657600080fd5b803590602001918460018302840111640100000000831117156104d857600080fd5b91908080601f016020809104026020016040519081016040528093929190818152602001838380828437600081840152601f19601f8201169050808301925050505050505091929192908035906020019092919080359060200190929190505050610cb0565b005b34801561054c57600080fd5b506106066004803603602081101561056357600080fd5b810190808035906020019064010000000081111561058057600080fd5b82018360208201111561059257600080fd5b803590602001918460018302840111640100000000831117156105b457600080fd5b91908080601f016020809104026020016040519081016040528093929190818152602001838380828437600081840152601f19601f820116905080830192505050505050509192919290505050610cb5565b604051808260ff1660ff16815260200191505060405180910390f35b34801561062e57600080fd5b506106e86004803603602081101561064557600080fd5b810190808035906020019064010000000081111561066257600080fd5b82018360208201111561067457600080fd5b8035906020019184600183028401116401000000008311171561069657600080fd5b91908080601f016020809104026020016040519081016040528093929190818152602001838380828437600081840152601f19601f820116905080830192505050505050509192919290505050610d26565b604051808060200180602001838103835285818151815260200191508051906020019060200280838360005b8381101561072f578082015181840152602081019050610714565b50505050905001838103825284818151815260200191508051906020019060200280838360005b83811015610771578082015181840152602081019050610756565b5050505090500194505050505060405180910390f35b34801561079357600080fd5b50610861600480360360608110156107aa57600080fd5b81019080803590602001906401000000008111156107c757600080fd5b8201836020820111156107d957600080fd5b803590602001918460018302840111640100000000831117156107fb57600080fd5b91908080601f016020809104026020016040519081016040528093929190818152602001838380828437600081840152601f19601f8201169050808301925050505050505091929192908035906020019092919080359060200190929190505050610d2e565b005b34801561086f57600080fd5b506109476004803603608081101561088657600080fd5b81019080803590602001906401000000008111156108a357600080fd5b8201836020820111156108b557600080fd5b803590602001918460018302840111640100000000831117156108d757600080fd5b91908080601f016020809104026020016040519081016040528093929190818152602001838380828437600081840152601f19601f820116905080830192505050505050509192919290803590602001909291908035906020019092919080359060200190929190505050610d33565b005b34801561095557600080fd5b5061095e610d39565b604051808273ffffffffffffffffffffffffffffffffffffffff1673ffffffffffffffffffffffffffffffffffffffff16815260200191505060405180910390f35b3480156109ac57600080fd5b50610a66600480360360208110156109c357600080fd5b81019080803590602001906401000000008111156109e057600080fd5b8201836020820111156109f257600080fd5b80359060200191846001830284011164010000000083111715610a1457600080fd5b91908080601f016020809104026020016040519081016040528093929190818152602001838380828437600081840152601f19601f820116905080830192505050505050509192919290505050610d5e565b604051808215151515815260200191505060405180910390f35b610a88610d8d565b005b348015610a9657600080fd5b50610b7060048036036040811015610aad57600080fd5b8101908080359060200190640100000000811115610aca57600080fd5b820183602082011115610adc57600080fd5b80359060200191846001830284011164010000000083111715610afe57600080fd5b91908080601f016020809104026020016040519081016040528093929190818152602001838380828437600081840152601f19601f820116905080830192505050505050509192919290803573ffffffffffffffffffffffffffffffffffffffff169060200190929190505050610d8f565b005b348015610b7e57600080fd5b50610c4260048036036040811015610b9557600080fd5b8101908080359060200190640100000000811115610bb257600080fd5b820183602082011115610bc457600080fd5b80359060200191846001830284011164010000000083111715610be657600080fd5b91908080601f016020809104026020016040519081016040528093929190818152602001838380828437600081840152601f19601f82011690508083019250505050505050919291929080359060200190929190505050610eed565b005b348015610c5057600080fd5b50610c9360048036036020811015610c6757600080fd5b81019080803573ffffffffffffffffffffffffffffffffffffffff169060200190929190505050610ef1565b005b606080915091565b600090565b5050565b6000919050565b50565b505050565b600080600190505b600260009054906101000a900460ff1660ff168160ff16111515610d1b57610d00600160008360ff1660ff16815260200190815260200160002060010184611164565b15610d0e5780915050610d21565b8080600101915050610cbd565b50600090505b919050565b606080915091565b505050565b50505050565b6000809054906101000a900473ffffffffffffffffffffffffffffffffffffffff1681565b600080610d6a83610cb5565b905060008160ff161415610d82576000915050610d88565b60019150505b919050565b565b610d9882610d5e565b151515610e0d576040517f08c379a000000000000000000000000000000000000000000000000000000000815260040180806020018281038252600f8152602001807f63616e27742061646420546f6b656e000000000000000000000000000000000081525060200191505060405180910390fd5b6002600081819054906101000a900460ff168092919060010191906101000a81548160ff021916908360ff160217905550508060016000600260009054906101000a900460ff1660ff1660ff16815260200190815260200160002060000160006101000a81548173ffffffffffffffffffffffffffffffffffffffff021916908373ffffffffffffffffffffffffffffffffffffffff1602179055508160016000600260009054906101000a900460ff1660ff1660ff1681526020019081526020016000206001019080519060200190610ee89291906112eb565b505050565b5050565b6000809054906101000a900473ffffffffffffffffffffffffffffffffffffffff1673ffffffffffffffffffffffffffffffffffffffff163373ffffffffffffffffffffffffffffffffffffffff16141515610fdb576040517f08c379a000000000000000000000000000000000000000000000000000000000815260040180806020018281038252602c8152602001807f796f7520617265206e6f7420616c6c6f77656420746f206d616b65207468697381526020017f207472616e73616374696f6e000000000000000000000000000000000000000081525060400191505060405180910390fd5b600073ffffffffffffffffffffffffffffffffffffffff168173ffffffffffffffffffffffffffffffffffffffff16141515156110a6576040517f08c379a000000000000000000000000000000000000000000000000000000000815260040180806020018281038252602f8152602001807f796f7520617265206e6f7420617574686f72697a656420746f206d616b65207481526020017f686973207472616e73616374696f6e000000000000000000000000000000000081525060400191505060405180910390fd5b8073ffffffffffffffffffffffffffffffffffffffff166000809054906101000a900473ffffffffffffffffffffffffffffffffffffffff1673ffffffffffffffffffffffffffffffffffffffff167f8be0079c531659141344cd1fd0a4f28419497f9722a3daafe3b4186f6b6457e060405160405180910390a3806000806101000a81548173ffffffffffffffffffffffffffffffffffffffff021916908373ffffffffffffffffffffffffffffffffffffffff16021790555050565b6000808390506060839050805182805460018160011615610100020316600290049050141515611199576000925050506112e5565b60008090505b828054600181600116156101000203166002900490508110156112dd5781818151811015156111ca57fe5b9060200101517f010000000000000000000000000000000000000000000000000000000000000090047f0100000000000000000000000000000000000000000000000000000000000000027effffffffffffffffffffffffffffffffffffffffffffffffffffffffffffff19168382815460018160011615610100020316600290048110151561125657fe5b8154600116156112755790600052602060002090602091828204019190065b9054901a7f0100000000000000000000000000000000000000000000000000000000000000027effffffffffffffffffffffffffffffffffffffffffffffffffffffffffffff19161415156112d057600093505050506112e5565b808060010191505061119f565b506001925050505b92915050565b828054600181600116156101000203166002900490600052602060002090601f016020900481019282601f1061132c57805160ff191683800117855561135a565b8280016001018555821561135a579182015b8281111561135957825182559160200191906001019061133e565b5b509050611367919061136b565b5090565b61138d91905b80821115611389576000816000905550600101611371565b5090565b9056fea165627a7a723058203abea3587589c31d99364d9164b2289dfe8feefbd54df91e25edc88feb7115b40029",
  "source": "pragma solidity ^0.5.0;\n\nimport \"contracts/Ownable.sol\";\nimport \"contracts/FixedSupplyToken.sol\";\n\ncontract Exchange is Ownable{\n\n\n    struct Offer{\n        uint amount;\n        address who;\n    }\n\n    struct OrderBook{\n        uint higherPrice;\n        uint lowerPrice;\n\n        mapping(uint => Offer)offers;\n\n        uint offers_key;\n        uint offers_length;\n    }\n\n    struct Token{\n        address tokenContract;\n        string symbolName;\n\n        mapping(uint => OrderBook) buyBook;\n        uint currrentBuyPrice;\n        uint lowestBuyPrice;\n        uint amountBuyPrices;\n\n        mapping(uint => OrderBook) sellBook;\n        uint currrentSellPrice;\n        uint highestSellPrice;\n        uint amountSellPrices;\n    }\n\n    mapping(uint8 => Token)token;\n    uint8 symbolNameIndex;\n\n    //Balances\n    mapping(address => mapping(uint8 => uint)) tokenBalanceForAddress;\n    mapping(address => uint) balanceEthForAddress;\n\n    // Ethereum Management\n    function depositEther()external payable{}\n    function withdrawEther(uint amountInWei) external{}\n    function getEthBalanceInWei() external returns(uint){}\n\n    // Token Management\n    function addToken(string memory symbolName, address erc20TokenAddress) public{\n        require(!hasToken(symbolName), \"can't add Token\");\n        symbolNameIndex++;\n        token[symbolNameIndex].tokenContract = erc20TokenAddress;\n        token[symbolNameIndex].symbolName = symbolName;\n    }\n    function hasToken(string memory symbolName) public view returns(bool){\n        uint8 index = getSymbolIndex(symbolName);\n        if(index == 0){\n            return false;\n        }\n        return true;\n    }\n    function getSymbolIndex(string memory symbolName) public view returns(uint8){\n        for(uint8 i = 1; i <= symbolNameIndex; i++){\n            if(stringsEqual(token[i].symbolName, symbolName)){\n                return i;\n            }\n        }\n        return 0;\n    }\n    function stringsEqual(string storage _a, string memory _b) internal view returns(bool){\n        bytes storage a = bytes(_a);\n        bytes memory b = bytes(_b);\n        if(a.length != b.length)\n        return false;\n        for(uint i = 0; i < a.length; i++){\n            if(a[i] != b[i]) {return false;}\n        }\n        return true;\n    }\n\n    //General Functionality\n    function depositToken(string memory symbolName, uint amount) public{}\n    function withdrawToken(string memory symbolName, uint amount) public{}\n    function getBalance(string memory symbolName) public returns(uint){}\n\n                          // OrderBook //\n\n    //Bid Orders\n    function getBuyOrderBook(string memory symbolName) public returns(uint[] memory,uint[] memory){}\n\n    //Ask Orders\n    function getSellOrderBook(string memory symbolName) public returns(uint[] memory, uint[] memory){}\n\n    //New Bid Order\n    function buyToken(string memory symbolName, uint priceInWei, uint amount) public{}\n\n    //New Ask Order\n    function sellToken(string memory symbolName, uint priceInWei, uint amount) public{}\n\n    //Cancel Limit Order\n    function cancelOrder(string memory symbolName, uint priceInWei, uint amount, uint offer_key) public{}\n\n}\n",
  "sourcePath": "/Users/lafountain/Desktop/BitCoin Inc./Marketplace/contracts/Exchange.sol",
  "compiler": {
    "name": "solc",
    "version": "0.5.0+commit.1d4f565a.Emscripten.clang"
  },
  "schemaVersion": "3.0.9",
  "updatedAt": "2019-06-30T21:21:39.467Z",
  "devdoc": {
    "methods": {}
  },
  "userdoc": {
    "methods": {}
  }
}