{
  "contractName": "Exchange",
  "abi": [
    {
      "constant": true,
      "inputs": [],
      "name": "owner",
      "outputs": [
        {
          "name": "",
          "type": "address"
        }
      ],
      "payable": false,
      "stateMutability": "view",
      "type": "function"
    },
    {
      "constant": false,
      "inputs": [
        {
          "name": "newOwner",
          "type": "address"
        }
      ],
      "name": "transferOwnership",
      "outputs": [],
      "payable": false,
      "stateMutability": "nonpayable",
      "type": "function"
    },
    {
      "anonymous": false,
      "inputs": [
        {
          "indexed": false,
          "name": "_symbolIndex",
          "type": "uint256"
        },
        {
          "indexed": false,
          "name": "_token",
          "type": "string"
        },
        {
          "indexed": false,
          "name": "_timestamp",
          "type": "uint256"
        }
      ],
      "name": "TokenAddedToSystem",
      "type": "event"
    },
    {
      "constant": false,
      "inputs": [
        {
          "indexed": true,
          "name": "_from",
          "type": "address"
        },
        {
          "indexed": true,
          "name": "_symbolIndex",
          "type": "uint256"
        },
        {
          "indexed": false,
          "name": "_amount",
          "type": "uint256"
        },
        {
          "indexed": false,
          "name": "_timestamp",
          "type": "uint256"
        }
      ],
      "name": "DepositForTokenReceived",
      "outputs": [],
      "payable": true,
      "stateMutability": "payable",
      "type": "event",
      "anonymous": false
    },
    {
      "constant": false,
      "inputs": [
        {
          "name": "_to",
          "type": "address",
          "indexed": true
        },
        {
          "indexed": true,
          "name": "_symbolIndex",
          "type": "uint256"
        },
        {
          "indexed": false,
          "name": "_amount",
          "type": "uint256"
        },
        {
          "indexed": false,
          "name": "_timestamp",
          "type": "uint256"
        }
      ],
      "name": "WithdrawalToken",
      "outputs": [],
      "payable": false,
      "stateMutability": "nonpayable",
      "type": "event",
      "anonymous": false
    },
    {
      "constant": true,
      "inputs": [
        {
          "indexed": true,
          "name": "_from",
          "type": "address"
        },
        {
          "indexed": false,
          "name": "_amount",
          "type": "uint256"
        },
        {
          "indexed": false,
          "name": "_timestamp",
          "type": "uint256"
        }
      ],
      "name": "DepositForEthReceived",
      "outputs": [
        {
          "name": "",
          "type": "uint256"
        }
      ],
      "payable": false,
      "stateMutability": "view",
      "type": "event",
      "anonymous": false
    },
    {
      "constant": false,
      "inputs": [
        {
          "name": "_to",
          "type": "address",
          "indexed": true
        },
        {
          "name": "_amount",
          "type": "uint256",
          "indexed": false
        },
        {
          "indexed": false,
          "name": "_timestamp",
          "type": "uint256"
        }
      ],
      "name": "WithdrawalEth",
      "outputs": [],
      "payable": false,
      "stateMutability": "nonpayable",
      "type": "event",
      "anonymous": false
    },
    {
      "constant": true,
      "inputs": [
        {
          "name": "_symbolIndex",
          "type": "uint256",
          "indexed": true
        },
        {
          "indexed": true,
          "name": "_who",
          "type": "address"
        },
        {
          "indexed": false,
          "name": "_amountTokens",
          "type": "uint256"
        },
        {
          "indexed": false,
          "name": "_priceInWei",
          "type": "uint256"
        },
        {
          "indexed": false,
          "name": "_orderKey",
          "type": "uint256"
        }
      ],
      "name": "LimitSellOrderCreated",
      "outputs": [
        {
          "name": "",
          "type": "bool"
        }
      ],
      "payable": false,
      "stateMutability": "view",
      "type": "event",
      "anonymous": false
    },
    {
      "constant": true,
      "inputs": [
        {
          "name": "_symbolIndex",
          "type": "uint256",
          "indexed": true
        },
        {
          "indexed": false,
          "name": "_amount",
          "type": "uint256"
        },
        {
          "indexed": false,
          "name": "_priceInWei",
          "type": "uint256"
        },
        {
          "indexed": false,
          "name": "_orderKey",
          "type": "uint256"
        }
      ],
      "name": "SellOrderFulfilled",
      "outputs": [
        {
          "name": "",
          "type": "uint8"
        }
      ],
      "payable": false,
      "stateMutability": "view",
      "type": "event",
      "anonymous": false
    },
    {
      "constant": false,
      "inputs": [
        {
          "name": "_symbolIndex",
          "type": "uint256",
          "indexed": true
        },
        {
          "name": "_priceInWei",
          "type": "uint256",
          "indexed": false
        },
        {
          "indexed": false,
          "name": "_orderKey",
          "type": "uint256"
        }
      ],
      "name": "SellOrderCanceled",
      "outputs": [],
      "payable": false,
      "stateMutability": "nonpayable",
      "type": "event",
      "anonymous": false
    },
    {
      "constant": false,
      "inputs": [
        {
          "name": "_symbolIndex",
          "type": "uint256",
          "indexed": true
        },
        {
          "name": "_amount",
          "type": "uint256",
          "indexed": false
        },
        {
          "indexed": false,
          "name": "_priceInWei",
          "type": "uint256"
        },
        {
          "indexed": false,
          "name": "_orderKey",
          "type": "uint256"
        }
      ],
      "name": "LimitBuyOrderCreated",
      "outputs": [],
      "payable": false,
      "stateMutability": "nonpayable",
      "type": "event",
      "anonymous": false
    },
    {
      "constant": false,
      "inputs": [
        {
          "name": "_symbolIndex",
          "type": "uint256",
          "indexed": true
        },
        {
          "indexed": false,
          "name": "_amount",
          "type": "uint256"
        },
        {
          "indexed": false,
          "name": "_priceInWei",
          "type": "uint256"
        },
        {
          "indexed": false,
          "name": "_orderKey",
          "type": "uint256"
        }
      ],
      "name": "BuyOrderFulfilled",
      "outputs": [
        {
          "name": "",
          "type": "uint256"
        }
      ],
      "payable": false,
      "stateMutability": "nonpayable",
      "type": "event",
      "anonymous": false
    },
    {
      "constant": false,
      "inputs": [
        {
          "name": "_symbolIndex",
          "type": "uint256",
          "indexed": true
        },
        {
          "indexed": false,
          "name": "_priceInWei",
          "type": "uint256"
        },
        {
          "indexed": false,
          "name": "_orderKey",
          "type": "uint256"
        }
      ],
      "name": "BuyOrderCanceled",
      "outputs": [
        {
          "name": "",
          "type": "uint256[]"
        },
        {
          "name": "",
          "type": "uint256[]"
        }
      ],
      "payable": false,
      "stateMutability": "nonpayable",
      "type": "event",
      "anonymous": false
    },
    {
      "constant": false,
      "inputs": [
        {
          "name": "previousOwner",
          "type": "address",
          "indexed": true
        },
        {
          "indexed": true,
          "name": "newOwner",
          "type": "address"
        }
      ],
      "name": "OwnershipTransferred",
      "outputs": [
        {
          "name": "",
          "type": "uint256[]"
        },
        {
          "name": "",
          "type": "uint256[]"
        }
      ],
      "payable": false,
      "stateMutability": "nonpayable",
      "type": "event",
      "anonymous": false
    },
    {
      "constant": false,
      "inputs": [
        {
          "name": "symbolName",
          "type": "string"
        },
        {
          "name": "priceInWei",
          "type": "uint256"
        },
        {
          "name": "amount",
          "type": "uint256"
        }
      ],
      "name": "depositEther",
      "outputs": [],
      "payable": true,
      "stateMutability": "payable",
      "type": "function"
    },
    {
      "constant": false,
      "inputs": [
        {
          "name": "amountInWei",
          "type": "uint256"
        },
        {
          "name": "priceInWei",
          "type": "uint256"
        },
        {
          "name": "amount",
          "type": "uint256"
        }
      ],
      "name": "withdrawEther",
      "outputs": [],
      "payable": false,
      "stateMutability": "nonpayable",
      "type": "function"
    },
    {
      "constant": true,
      "inputs": [
        {
          "name": "symbolName",
          "type": "string"
        },
        {
          "name": "priceInWei",
          "type": "uint256"
        },
        {
          "name": "amount",
          "type": "uint256"
        },
        {
          "name": "offer_key",
          "type": "uint256"
        }
      ],
      "name": "getEthBalanceInWei",
      "outputs": [
        {
          "name": "",
          "type": "uint256"
        }
      ],
      "payable": false,
      "stateMutability": "view",
      "type": "function"
    },
    {
      "constant": false,
      "inputs": [
        {
          "name": "symbolName",
          "type": "string"
        },
        {
          "name": "erc20TokenAddress",
          "type": "address"
        }
      ],
      "name": "addToken",
      "outputs": [],
      "payable": false,
      "stateMutability": "nonpayable",
      "type": "function"
    },
    {
      "constant": true,
      "inputs": [
        {
          "name": "symbolName",
          "type": "string"
        }
      ],
      "name": "hasToken",
      "outputs": [
        {
          "name": "",
          "type": "bool"
        }
      ],
      "payable": false,
      "stateMutability": "view",
      "type": "function"
    },
    {
      "constant": true,
      "inputs": [
        {
          "name": "symbolName",
          "type": "string"
        }
      ],
      "name": "getSymbolIndex",
      "outputs": [
        {
          "name": "",
          "type": "uint8"
        }
      ],
      "payable": false,
      "stateMutability": "view",
      "type": "function"
    },
    {
      "constant": false,
      "inputs": [
        {
          "name": "symbolName",
          "type": "string"
        },
        {
          "name": "amount",
          "type": "uint256"
        }
      ],
      "name": "depositToken",
      "outputs": [],
      "payable": false,
      "stateMutability": "nonpayable",
      "type": "function"
    },
    {
      "constant": false,
      "inputs": [
        {
          "name": "symbolName",
          "type": "string"
        },
        {
          "name": "amount",
          "type": "uint256"
        }
      ],
      "name": "withdrawToken",
      "outputs": [],
      "payable": false,
      "stateMutability": "nonpayable",
      "type": "function"
    },
    {
      "constant": false,
      "inputs": [
        {
          "name": "symbolName",
          "type": "string"
        }
      ],
      "name": "getBalance",
      "outputs": [
        {
          "name": "",
          "type": "uint256"
        }
      ],
      "payable": false,
      "stateMutability": "nonpayable",
      "type": "function"
    },
    {
      "constant": false,
      "inputs": [
        {
          "name": "symbolName",
          "type": "string"
        }
      ],
      "name": "getBuyOrderBook",
      "outputs": [
        {
          "name": "",
          "type": "uint256[]"
        },
        {
          "name": "",
          "type": "uint256[]"
        }
      ],
      "payable": false,
      "stateMutability": "nonpayable",
      "type": "function"
    },
    {
      "constant": false,
      "inputs": [
        {
          "name": "symbolName",
          "type": "string"
        }
      ],
      "name": "getSellOrderBook",
      "outputs": [
        {
          "name": "",
          "type": "uint256[]"
        },
        {
          "name": "",
          "type": "uint256[]"
        }
      ],
      "payable": false,
      "stateMutability": "nonpayable",
      "type": "function"
    },
    {
      "constant": false,
      "inputs": [
        {
          "name": "symbolName",
          "type": "string"
        },
        {
          "name": "priceInWei",
          "type": "uint256"
        },
        {
          "name": "amount",
          "type": "uint256"
        }
      ],
      "name": "buyToken",
      "outputs": [],
      "payable": false,
      "stateMutability": "nonpayable",
      "type": "function"
    },
    {
      "constant": false,
      "inputs": [
        {
          "name": "symbolName",
          "type": "string"
        },
        {
          "name": "priceInWei",
          "type": "uint256"
        },
        {
          "name": "amount",
          "type": "uint256"
        }
      ],
      "name": "sellToken",
      "outputs": [],
      "payable": false,
      "stateMutability": "nonpayable",
      "type": "function"
    },
    {
      "constant": false,
      "inputs": [
        {
          "name": "symbolName",
          "type": "string"
        },
        {
          "name": "priceInWei",
          "type": "uint256"
        },
        {
          "name": "amount",
          "type": "uint256"
        },
        {
          "name": "offer_key",
          "type": "uint256"
        }
      ],
      "name": "cancelOrder",
      "outputs": [],
      "payable": false,
      "stateMutability": "nonpayable",
      "type": "function"
    }
  ],
  "bytecode": "0x6080604052336000806101000a81548173ffffffffffffffffffffffffffffffffffffffff021916908373ffffffffffffffffffffffffffffffffffffffff1602179055506125ea806100536000396000f3fe6080604052600436106100e6576000357c0100000000000000000000000000000000000000000000000000000000900463ffffffff16806303bc4a27146100eb5780631a8eb72b1461025057806333ad57e41461027b5780633a51d2461461034d5780633bed33ce146104295780635ab8ea331461046457806367fee8b414610540578063728ff02914610622578063851030fe146107875780638900c8e1146108635780638da5cb5b146109495780638ea00818146109a057806398ea5fca14610a80578063b0b22c2c14610a8a578063c97a413a14610b72578063f2fde38b14610c44575b600080fd5b3480156100f757600080fd5b506101b16004803603602081101561010e57600080fd5b810190808035906020019064010000000081111561012b57600080fd5b82018360208201111561013d57600080fd5b8035906020019184600183028401116401000000008311171561015f57600080fd5b91908080601f016020809104026020016040519081016040528093929190818152602001838380828437600081840152601f19601f820116905080830192505050505050509192919290505050610c95565b604051808060200180602001838103835285818151815260200191508051906020019060200280838360005b838110156101f85780820151818401526020810190506101dd565b50505050905001838103825284818151815260200191508051906020019060200280838360005b8381101561023a57808201518184015260208101905061021f565b5050505090500194505050505060405180910390f35b34801561025c57600080fd5b50610265610c9d565b6040518082815260200191505060405180910390f35b34801561028757600080fd5b5061034b6004803603604081101561029e57600080fd5b81019080803590602001906401000000008111156102bb57600080fd5b8201836020820111156102cd57600080fd5b803590602001918460018302840111640100000000831117156102ef57600080fd5b91908080601f016020809104026020016040519081016040528093929190818152602001838380828437600081840152601f19601f82011690508083019250505050505050919291929080359060200190929190505050610ce4565b005b34801561035957600080fd5b506104136004803603602081101561037057600080fd5b810190808035906020019064010000000081111561038d57600080fd5b82018360208201111561039f57600080fd5b803590602001918460018302840111640100000000831117156103c157600080fd5b91908080601f016020809104026020016040519081016040528093929190818152602001838380828437600081840152601f19601f820116905080830192505050505050509192919290505050611283565b6040518082815260200191505060405180910390f35b34801561043557600080fd5b506104626004803603602081101561044c57600080fd5b810190808035906020019092919050505061139f565b005b34801561047057600080fd5b5061053e6004803603606081101561048757600080fd5b81019080803590602001906401000000008111156104a457600080fd5b8201836020820111156104b657600080fd5b803590602001918460018302840111640100000000831117156104d857600080fd5b91908080601f016020809104026020016040519081016040528093929190818152602001838380828437600081840152601f19601f820116905080830192505050505050509192919290803590602001909291908035906020019092919050505061163e565b005b34801561054c57600080fd5b506106066004803603602081101561056357600080fd5b810190808035906020019064010000000081111561058057600080fd5b82018360208201111561059257600080fd5b803590602001918460018302840111640100000000831117156105b457600080fd5b91908080601f016020809104026020016040519081016040528093929190818152602001838380828437600081840152601f19601f820116905080830192505050505050509192919290505050611643565b604051808260ff1660ff16815260200191505060405180910390f35b34801561062e57600080fd5b506106e86004803603602081101561064557600080fd5b810190808035906020019064010000000081111561066257600080fd5b82018360208201111561067457600080fd5b8035906020019184600183028401116401000000008311171561069657600080fd5b91908080601f016020809104026020016040519081016040528093929190818152602001838380828437600081840152601f19601f8201169050808301925050505050505091929192905050506116b4565b604051808060200180602001838103835285818151815260200191508051906020019060200280838360005b8381101561072f578082015181840152602081019050610714565b50505050905001838103825284818151815260200191508051906020019060200280838360005b83811015610771578082015181840152602081019050610756565b5050505090500194505050505060405180910390f35b34801561079357600080fd5b50610861600480360360608110156107aa57600080fd5b81019080803590602001906401000000008111156107c757600080fd5b8201836020820111156107d957600080fd5b803590602001918460018302840111640100000000831117156107fb57600080fd5b91908080601f016020809104026020016040519081016040528093929190818152602001838380828437600081840152601f19601f82011690508083019250505050505050919291929080359060200190929190803590602001909291905050506116bc565b005b34801561086f57600080fd5b506109476004803603608081101561088657600080fd5b81019080803590602001906401000000008111156108a357600080fd5b8201836020820111156108b557600080fd5b803590602001918460018302840111640100000000831117156108d757600080fd5b91908080601f016020809104026020016040519081016040528093929190818152602001838380828437600081840152601f19601f8201169050808301925050505050505091929192908035906020019092919080359060200190929190803590602001909291905050506116c1565b005b34801561095557600080fd5b5061095e6116c7565b604051808273ffffffffffffffffffffffffffffffffffffffff1673ffffffffffffffffffffffffffffffffffffffff16815260200191505060405180910390f35b3480156109ac57600080fd5b50610a66600480360360208110156109c357600080fd5b81019080803590602001906401000000008111156109e057600080fd5b8201836020820111156109f257600080fd5b80359060200191846001830284011164010000000083111715610a1457600080fd5b91908080601f016020809104026020016040519081016040528093929190818152602001838380828437600081840152601f19601f8201169050808301925050505050505091929192905050506116ec565b604051808215151515815260200191505060405180910390f35b610a8861171b565b005b348015610a9657600080fd5b50610b7060048036036040811015610aad57600080fd5b8101908080359060200190640100000000811115610aca57600080fd5b820183602082011115610adc57600080fd5b80359060200191846001830284011164010000000083111715610afe57600080fd5b91908080601f016020809104026020016040519081016040528093929190818152602001838380828437600081840152601f19601f820116905080830192505050505050509192919290803573ffffffffffffffffffffffffffffffffffffffff1690602001909291905050506118b8565b005b348015610b7e57600080fd5b50610c4260048036036040811015610b9557600080fd5b8101908080359060200190640100000000811115610bb257600080fd5b820183602082011115610bc457600080fd5b80359060200191846001830284011164010000000083111715610be657600080fd5b91908080601f016020809104026020016040519081016040528093929190818152602001838380828437600081840152601f19601f82011690508083019250505050505050919291929080359060200190929190505050611ad4565b005b348015610c5057600080fd5b50610c9360048036036020811015610c6757600080fd5b81019080803573ffffffffffffffffffffffffffffffffffffffff16906020019092919050505061211f565b005b606080915091565b6000600460003373ffffffffffffffffffffffffffffffffffffffff1673ffffffffffffffffffffffffffffffffffffffff16815260200190815260200160002054905090565b610ced82611643565b600260006101000a81548160ff021916908360ff1602179055506000600260009054906101000a900460ff1660ff16111515610d91576040517f08c379a000000000000000000000000000000000000000000000000000000000815260040180806020018281038252601b8152602001807f6e6f20746f6b656e20636f6e747261637420617661696c61626c65000000000081525060200191505060405180910390fd5b600073ffffffffffffffffffffffffffffffffffffffff1660016000600260009054906101000a900460ff1660ff1660ff16815260200190815260200160002060000160009054906101000a900473ffffffffffffffffffffffffffffffffffffffff1673ffffffffffffffffffffffffffffffffffffffff1614151515610e81576040517f08c379a000000000000000000000000000000000000000000000000000000000815260040180806020018281038252600a8152602001807f77726f6e6720757365720000000000000000000000000000000000000000000081525060200191505060405180910390fd5b600060016000600260009054906101000a900460ff1660ff1660ff16815260200190815260200160002060000160009054906101000a900473ffffffffffffffffffffffffffffffffffffffff169050600115158173ffffffffffffffffffffffffffffffffffffffff166323b872dd3330866040518463ffffffff167c0100000000000000000000000000000000000000000000000000000000028152600401808473ffffffffffffffffffffffffffffffffffffffff1673ffffffffffffffffffffffffffffffffffffffff1681526020018373ffffffffffffffffffffffffffffffffffffffff1673ffffffffffffffffffffffffffffffffffffffff1681526020018281526020019350505050602060405180830381600087803b158015610fac57600080fd5b505af1158015610fc0573d6000803e3d6000fd5b505050506040513d6020811015610fd657600080fd5b8101908080519060200190929190505050151514151561105e576040517f08c379a00000000000000000000000000000000000000000000000000000000081526004018080602001828103825260138152602001807f6572726f722077697468207472616e736665720000000000000000000000000081525060200191505060405180910390fd5b600360003373ffffffffffffffffffffffffffffffffffffffff1673ffffffffffffffffffffffffffffffffffffffff1681526020019081526020016000206000600260009054906101000a900460ff1660ff1660ff1681526020019081526020016000205482600360003373ffffffffffffffffffffffffffffffffffffffff1673ffffffffffffffffffffffffffffffffffffffff1681526020019081526020016000206000600260009054906101000a900460ff1660ff1660ff1681526020019081526020016000205401101515156111a2576040517f08c379a000000000000000000000000000000000000000000000000000000000815260040180806020018281038252600f8152602001807f696e76616c69642062616c616e6365000000000000000000000000000000000081525060200191505060405180910390fd5b81600360003373ffffffffffffffffffffffffffffffffffffffff1673ffffffffffffffffffffffffffffffffffffffff1681526020019081526020016000206000600260009054906101000a900460ff1660ff1660ff16815260200190815260200160002060008282540192505081905550600260009054906101000a900460ff1660ff163373ffffffffffffffffffffffffffffffffffffffff167fc0aa5496c7b01c4b317a58e270b45f383bcd6ae57f9e5124db9c0674b77764998442604051808381526020018281526020019250505060405180910390a3505050565b600061128e82611643565b600260006101000a81548160ff021916908360ff1602179055506000600260009054906101000a900460ff1660ff16111515611332576040517f08c379a00000000000000000000000000000000000000000000000000000000081526004018080602001828103825260118152602001807f4e6f20546f6b656e20436f6e747261637400000000000000000000000000000081525060200191505060405180910390fd5b600360003373ffffffffffffffffffffffffffffffffffffffff1673ffffffffffffffffffffffffffffffffffffffff1681526020019081526020016000206000600260009054906101000a900460ff1660ff1660ff168152602001908152602001600020549050919050565b600081600460003373ffffffffffffffffffffffffffffffffffffffff1673ffffffffffffffffffffffffffffffffffffffff168152602001908152602001600020540310151515611459576040517f08c379a000000000000000000000000000000000000000000000000000000000815260040180806020018281038252600e8152602001807f496e76616c696420416d6f756e7400000000000000000000000000000000000081525060200191505060405180910390fd5b600460003373ffffffffffffffffffffffffffffffffffffffff1673ffffffffffffffffffffffffffffffffffffffff1681526020019081526020016000205481600460003373ffffffffffffffffffffffffffffffffffffffff1673ffffffffffffffffffffffffffffffffffffffff168152602001908152602001600020540311151515611551576040517f08c379a000000000000000000000000000000000000000000000000000000000815260040180806020018281038252600e8152602001807f496e76616c696420416d6f756e7400000000000000000000000000000000000081525060200191505060405180910390fd5b80600460003373ffffffffffffffffffffffffffffffffffffffff1673ffffffffffffffffffffffffffffffffffffffff168152602001908152602001600020600082825403925050819055503373ffffffffffffffffffffffffffffffffffffffff166108fc829081150290604051600060405180830381858888f193505050501580156115e4573d6000803e3d6000fd5b503373ffffffffffffffffffffffffffffffffffffffff167fac9513adf40097763b4664bee3693d0f051127c5ac55e33f68926c1612ac59958242604051808381526020018281526020019250505060405180910390a250565b505050565b600080600190505b600260009054906101000a900460ff1660ff168160ff161115156116a95761168e600160008360ff1660ff16815260200190815260200160002060010184612392565b1561169c57809150506116af565b808060010191505061164b565b50600090505b919050565b606080915091565b505050565b50505050565b6000809054906101000a900473ffffffffffffffffffffffffffffffffffffffff1681565b6000806116f883611643565b905060008160ff161415611710576000915050611716565b60019150505b919050565b600460003373ffffffffffffffffffffffffffffffffffffffff1673ffffffffffffffffffffffffffffffffffffffff1681526020019081526020016000205434600460003373ffffffffffffffffffffffffffffffffffffffff1673ffffffffffffffffffffffffffffffffffffffff168152602001908152602001600020540110151515611813576040517f08c379a00000000000000000000000000000000000000000000000000000000081526004018080602001828103825260148152602001807f496e76616c696420457468657220416d6f756e7400000000000000000000000081525060200191505060405180910390fd5b34600460003373ffffffffffffffffffffffffffffffffffffffff1673ffffffffffffffffffffffffffffffffffffffff168152602001908152602001600020600082825401925050819055503373ffffffffffffffffffffffffffffffffffffffff167f42dbebeb8f6fb795e3007753aef2d4b1a292dd123f6de06a41050186741506373442604051808381526020018281526020019250505060405180910390a2565b6118c1826116ec565b151515611936576040517f08c379a000000000000000000000000000000000000000000000000000000000815260040180806020018281038252600f8152602001807f63616e27742061646420546f6b656e000000000000000000000000000000000081525060200191505060405180910390fd5b6002600081819054906101000a900460ff168092919060010191906101000a81548160ff021916908360ff160217905550508060016000600260009054906101000a900460ff1660ff1660ff16815260200190815260200160002060000160006101000a81548173ffffffffffffffffffffffffffffffffffffffff021916908373ffffffffffffffffffffffffffffffffffffffff1602179055508160016000600260009054906101000a900460ff1660ff1660ff1681526020019081526020016000206001019080519060200190611a11929190612519565b507f6c71eb76d5d82031f490d3e44dc01d298444e569078199b14510435d81b59ff7600260009054906101000a900460ff168342604051808460ff16815260200180602001838152602001828103825284818151815260200191508051906020019080838360005b83811015611a94578082015181840152602081019050611a79565b50505050905090810190601f168015611ac15780820380516001836020036101000a031916815260200191505b5094505050505060405180910390a15050565b611add82611643565b600260006101000a81548160ff021916908360ff160217905550600073ffffffffffffffffffffffffffffffffffffffff1660016000600260009054906101000a900460ff1660ff1660ff16815260200190815260200160002060000160009054906101000a900473ffffffffffffffffffffffffffffffffffffffff1673ffffffffffffffffffffffffffffffffffffffff1614151515611be7576040517f08c379a000000000000000000000000000000000000000000000000000000000815260040180806020018281038252601c8152602001807f63616e206e6f74206c6f6361746520746f6b656e436f6e74726163740000000081525060200191505060405180910390fd5b6000600260009054906101000a900460ff1660ff16111515611c71576040517f08c379a000000000000000000000000000000000000000000000000000000000815260040180806020018281038252601b8152602001807f6e6f20746f6b656e20636f6e747261637420617661696c61626c65000000000081525060200191505060405180910390fd5b600060016000600260009054906101000a900460ff1660ff1660ff16815260200190815260200160002060000160009054906101000a900473ffffffffffffffffffffffffffffffffffffffff169050600082600360003373ffffffffffffffffffffffffffffffffffffffff1673ffffffffffffffffffffffffffffffffffffffff1681526020019081526020016000206000600260009054906101000a900460ff1660ff1660ff168152602001908152602001600020540310151515611da1576040517f08c379a000000000000000000000000000000000000000000000000000000000815260040180806020018281038252600e8152602001807f696e76616c696420616d6f756e7400000000000000000000000000000000000081525060200191505060405180910390fd5b600360003373ffffffffffffffffffffffffffffffffffffffff1673ffffffffffffffffffffffffffffffffffffffff1681526020019081526020016000206000600260009054906101000a900460ff1660ff1660ff1681526020019081526020016000205482600360003373ffffffffffffffffffffffffffffffffffffffff1673ffffffffffffffffffffffffffffffffffffffff1681526020019081526020016000206000600260009054906101000a900460ff1660ff1660ff168152602001908152602001600020540311151515611ee5576040517f08c379a000000000000000000000000000000000000000000000000000000000815260040180806020018281038252600e8152602001807f696e76616c696420616d6f756e7400000000000000000000000000000000000081525060200191505060405180910390fd5b81600360003373ffffffffffffffffffffffffffffffffffffffff1673ffffffffffffffffffffffffffffffffffffffff1681526020019081526020016000206000600260009054906101000a900460ff1660ff1660ff16815260200190815260200160002060008282540392505081905550600115158173ffffffffffffffffffffffffffffffffffffffff1663a9059cbb33856040518363ffffffff167c0100000000000000000000000000000000000000000000000000000000028152600401808373ffffffffffffffffffffffffffffffffffffffff1673ffffffffffffffffffffffffffffffffffffffff16815260200182815260200192505050602060405180830381600087803b158015611fff57600080fd5b505af1158015612013573d6000803e3d6000fd5b505050506040513d602081101561202957600080fd5b810190808051906020019092919050505015151415156120b1576040517f08c379a000000000000000000000000000000000000000000000000000000000815260040180806020018281038252600f8152602001807f696e76616c69642072657175657374000000000000000000000000000000000081525060200191505060405180910390fd5b600260009054906101000a900460ff1660ff163373ffffffffffffffffffffffffffffffffffffffff167faed5c5198ccd7615c0128c72fcfc060e97b14315cb791a46bf42b5b6f36c38b98442604051808381526020018281526020019250505060405180910390a3505050565b6000809054906101000a900473ffffffffffffffffffffffffffffffffffffffff1673ffffffffffffffffffffffffffffffffffffffff163373ffffffffffffffffffffffffffffffffffffffff16141515612209576040517f08c379a000000000000000000000000000000000000000000000000000000000815260040180806020018281038252602c8152602001807f796f7520617265206e6f7420616c6c6f77656420746f206d616b65207468697381526020017f207472616e73616374696f6e000000000000000000000000000000000000000081525060400191505060405180910390fd5b600073ffffffffffffffffffffffffffffffffffffffff168173ffffffffffffffffffffffffffffffffffffffff16141515156122d4576040517f08c379a000000000000000000000000000000000000000000000000000000000815260040180806020018281038252602f8152602001807f796f7520617265206e6f7420617574686f72697a656420746f206d616b65207481526020017f686973207472616e73616374696f6e000000000000000000000000000000000081525060400191505060405180910390fd5b8073ffffffffffffffffffffffffffffffffffffffff166000809054906101000a900473ffffffffffffffffffffffffffffffffffffffff1673ffffffffffffffffffffffffffffffffffffffff167f8be0079c531659141344cd1fd0a4f28419497f9722a3daafe3b4186f6b6457e060405160405180910390a3806000806101000a81548173ffffffffffffffffffffffffffffffffffffffff021916908373ffffffffffffffffffffffffffffffffffffffff16021790555050565b60008083905060608390508051828054600181600116156101000203166002900490501415156123c757600092505050612513565b60008090505b8280546001816001161561010002031660029004905081101561250b5781818151811015156123f857fe5b9060200101517f010000000000000000000000000000000000000000000000000000000000000090047f0100000000000000000000000000000000000000000000000000000000000000027effffffffffffffffffffffffffffffffffffffffffffffffffffffffffffff19168382815460018160011615610100020316600290048110151561248457fe5b8154600116156124a35790600052602060002090602091828204019190065b9054901a7f0100000000000000000000000000000000000000000000000000000000000000027effffffffffffffffffffffffffffffffffffffffffffffffffffffffffffff19161415156124fe5760009350505050612513565b80806001019150506123cd565b506001925050505b92915050565b828054600181600116156101000203166002900490600052602060002090601f016020900481019282601f1061255a57805160ff1916838001178555612588565b82800160010185558215612588579182015b8281111561258757825182559160200191906001019061256c565b5b5090506125959190612599565b5090565b6125bb91905b808211156125b757600081600090555060010161259f565b5090565b9056fea165627a7a723058202d3f9cd7f6fb5f79c971394b6a273611ccd02c93fd73ad070450f277ba2bafb00029",
  "source": "pragma solidity ^0.5.0;\n\nimport \"contracts/Ownable.sol\";\nimport \"contracts/FixedSupplyToken.sol\";\n\ncontract Exchange is Ownable{\n\n\n    struct Offer{\n        uint amount;\n        address who;\n    }\n\n    struct OrderBook{\n        uint higherPrice;\n        uint lowerPrice;\n\n        mapping(uint => Offer)offers;\n\n        uint offers_key;\n        uint offers_length;\n    }\n\n    struct Token{\n        address tokenContract;\n        string symbolName;\n\n        mapping(uint => OrderBook) buyBook;\n        uint currrentBuyPrice;\n        uint lowestBuyPrice;\n        uint amountBuyPrices;\n\n        mapping(uint => OrderBook) sellBook;\n        uint currrentSellPrice;\n        uint highestSellPrice;\n        uint amountSellPrices;\n    }\n\n    mapping(uint8 => Token)token;\n    uint8 symbolNameIndex;\n\n    // Management events\n    event TokenAddedToSystem(uint _symbolIndex, string _token, uint _timestamp);\n\n    // Deposit/Withdrawal events\n    event DepositForTokenReceived(address indexed _from, uint indexed _symbolIndex, uint _amount, uint _timestamp);\n    event WithdrawalToken(address indexed _to, uint indexed _symbolIndex, uint _amount, uint _timestamp);\n    event DepositForEthReceived(address indexed _from, uint _amount, uint _timestamp);\n    event WithdrawalEth(address indexed _to, uint _amount, uint _timestamp);\n\n    // Trading/Order Events\n    event LimitSellOrderCreated(uint indexed _symbolIndex, address indexed _who, uint _amountTokens, uint _priceInWei, uint _orderKey);\n    event SellOrderFulfilled(uint indexed _symbolIndex, uint _amount, uint _priceInWei, uint _orderKey);\n    event SellOrderCanceled(uint indexed _symbolIndex, uint _priceInWei, uint _orderKey);\n\n    event LimitBuyOrderCreated(uint indexed _symbolIndex, uint _amount, uint _priceInWei, uint _orderKey);\n    event BuyOrderFulfilled(uint indexed _symbolIndex, uint _amount, uint _priceInWei, uint _orderKey);\n    event BuyOrderCanceled(uint indexed _symbolIndex, uint _priceInWei, uint _orderKey);\n\n    //Balances\n    mapping(address => mapping(uint8 => uint)) tokenBalForAddress;\n    mapping(address => uint) balanceEthForAddress;\n\n    // Ethereum Management\n    function depositEther()external payable {\n        require(balanceEthForAddress[msg.sender] + msg.value >= balanceEthForAddress[msg.sender], \"Invalid Ether Amount\");\n        balanceEthForAddress[msg.sender] += msg.value;\n        emit DepositForEthReceived(msg.sender, msg.value, now);\n    }\n\n    function withdrawEther(uint amountInWei) external{\n        require(balanceEthForAddress[msg.sender] - amountInWei >= 0, 'Invalid Amount');\n        require(balanceEthForAddress[msg.sender] - amountInWei <= balanceEthForAddress[msg.sender], 'Invalid Amount');\n        balanceEthForAddress[msg.sender] -= amountInWei;\n        msg.sender.transfer(amountInWei);\n        emit WithdrawalEth(msg.sender, amountInWei, now);\n    }\n    function getEthBalanceInWei() external view returns(uint){\n        return balanceEthForAddress[msg.sender];\n    }\n\n\n    // Token Management\n    function addToken(string memory symbolName, address erc20TokenAddress) public{\n        require(!hasToken(symbolName), \"can't add Token\");\n        symbolNameIndex++;\n        token[symbolNameIndex].tokenContract = erc20TokenAddress;\n        token[symbolNameIndex].symbolName = symbolName;\n        emit TokenAddedToSystem(symbolNameIndex, symbolName, now);\n    }\n    function hasToken(string memory symbolName) public view returns(bool){\n        uint8 index = getSymbolIndex(symbolName);\n        if(index == 0){\n            return false;\n        }\n        return true;\n    }\n    function getSymbolIndex(string memory symbolName) public view returns(uint8){\n        for(uint8 i = 1; i <= symbolNameIndex; i++){\n            if(stringsEqual(token[i].symbolName, symbolName)){\n                return i;\n            }\n        }\n        return 0;\n    }\n    function stringsEqual(string storage _a, string memory _b) internal view returns(bool){\n        bytes storage a = bytes(_a);\n        bytes memory b = bytes(_b);\n        if(a.length != b.length)\n        return false;\n        for(uint i = 0; i < a.length; i++){\n            if(a[i] != b[i]) {return false;}\n        }\n        return true;\n    }\n\n    //General Functionality\n    function depositToken(string memory symbolName, uint amount) public{\n        symbolNameIndex = getSymbolIndex(symbolName);\n        require(symbolNameIndex > 0, 'no token contract available');\n        require(token[symbolNameIndex].tokenContract != address(0), \"wrong user\");\n\n        ERC20Interface tokens = ERC20Interface(token[symbolNameIndex].tokenContract);\n\n        require(tokens.transferFrom(msg.sender, address(this), amount) == true, 'error with transfer');\n        require(tokenBalForAddress[msg.sender][symbolNameIndex] + amount >= tokenBalForAddress[msg.sender][symbolNameIndex], 'invalid balance');\n        tokenBalForAddress[msg.sender][symbolNameIndex] += amount;\n        emit DepositForTokenReceived(msg.sender, symbolNameIndex, amount, now);\n    }\n\n    function withdrawToken(string memory symbolName, uint amount) public{\n        symbolNameIndex = getSymbolIndex(symbolName);\n        require(token[symbolNameIndex].tokenContract != address(0), 'can not locate tokenContract');\n        require(symbolNameIndex > 0, 'no token contract available');\n\n        ERC20Interface tokens = ERC20Interface(token[symbolNameIndex].tokenContract);\n\n        require(tokenBalForAddress[msg.sender][symbolNameIndex] - amount >= 0, 'invalid amount');\n        require(tokenBalForAddress[msg.sender][symbolNameIndex] - amount <= tokenBalForAddress[msg.sender][symbolNameIndex], \"invalid amount\");\n\n        tokenBalForAddress[msg.sender][symbolNameIndex] -= amount;\n        require(tokens.transfer(msg.sender, amount) == true, \"invalid request\");\n        emit WithdrawalToken(msg.sender, symbolNameIndex, amount, now);\n    }\n\n    function getBalance(string memory symbolName) public returns(uint){\n        symbolNameIndex = getSymbolIndex(symbolName);\n        require(symbolNameIndex > 0, 'No Token Contract');\n        return tokenBalForAddress[msg.sender][symbolNameIndex];\n    }\n\n                          // OrderBook //\n\n    //Bid Orders\n    function getBuyOrderBook(string memory symbolName) public returns(uint[] memory,uint[] memory){}\n\n    //Ask Orders\n    function getSellOrderBook(string memory symbolName) public returns(uint[] memory, uint[] memory){}\n\n    //New Bid Order\n    function buyToken(string memory symbolName, uint priceInWei, uint amount) public{}\n\n    //New Ask Order\n    function sellToken(string memory symbolName, uint priceInWei, uint amount) public{}\n\n    //Cancel Limit Order\n    function cancelOrder(string memory symbolName, uint priceInWei, uint amount, uint offer_key) public{}\n\n}\n",
  "sourcePath": "/Users/lafountain/Desktop/BitCoin Inc./Marketplace/contracts/Exchange.sol",
  "compiler": {
    "name": "solc",
    "version": "0.5.0+commit.1d4f565a.Emscripten.clang"
  },
  "schemaVersion": "3.0.9",
  "updatedAt": "2019-07-01T18:36:58.328Z",
  "devdoc": {
    "methods": {}
  },
  "userdoc": {
    "methods": {}
  }
}